:1000000000308A003C280000FF00030E8301A1009D
:100010000A08A0008A010408A2007708A300780853
:10002000A4007908A5007A08A600831383128B1E0A
:100030001B280B192C28220884002308F700240809
:10004000F8002508F9002608FA0020088A00210E89
:100050008300FF0E7F0E09008A110A122F28A80FB5
:10006000322808142708280203190810EB308100F1
:100070000B118A110A121B2803081F3983008316EB
:1000800003178711193003139900A6309800903098
:1000900083129800831603170908C03989000313D7
:1000A0001F129F12003003178800831287018801F6
:1000B000890183130030831603138800831288019B
:1000C000C0308B048B1683160108C03901388100BB
:1000D000EB30831281000530A7008C1E6D281A08B2
:1000E000A900290B752888107D282908023C031DCA
:0E00F0007B2888147D282908A7006D2863004E
:04400E00E12FFF3F60
:00000001FF
;PIC16F887
;CRC=6541  CREATED="22-ago.-18 20:51"
